{
  "contractName": "AuthenticationContract",
  "abi": [
    {
      "inputs": [],
      "stateMutability": "nonpayable",
      "type": "constructor"
    },
    {
      "anonymous": false,
      "inputs": [
        {
          "indexed": false,
          "internalType": "address",
          "name": "newAdmin",
          "type": "address"
        },
        {
          "indexed": false,
          "internalType": "address",
          "name": "addingAdmin",
          "type": "address"
        }
      ],
      "name": "AdminAdded",
      "type": "event"
    },
    {
      "anonymous": false,
      "inputs": [
        {
          "indexed": false,
          "internalType": "address",
          "name": "newAdmin",
          "type": "address"
        },
        {
          "indexed": false,
          "internalType": "address",
          "name": "deletingAdmin",
          "type": "address"
        }
      ],
      "name": "AdminDeleted",
      "type": "event"
    },
    {
      "anonymous": false,
      "inputs": [
        {
          "indexed": false,
          "internalType": "address",
          "name": "user",
          "type": "address"
        },
        {
          "indexed": false,
          "internalType": "address",
          "name": "device",
          "type": "address"
        },
        {
          "indexed": false,
          "internalType": "address",
          "name": "fog",
          "type": "address"
        }
      ],
      "name": "Authenticated",
      "type": "event"
    },
    {
      "anonymous": false,
      "inputs": [
        {
          "indexed": false,
          "internalType": "address",
          "name": "device",
          "type": "address"
        },
        {
          "indexed": false,
          "internalType": "address",
          "name": "fog",
          "type": "address"
        },
        {
          "indexed": false,
          "internalType": "address",
          "name": "sender",
          "type": "address"
        }
      ],
      "name": "DeviceDoesnotExist",
      "type": "event"
    },
    {
      "anonymous": false,
      "inputs": [
        {
          "indexed": false,
          "internalType": "address",
          "name": "fog",
          "type": "address"
        },
        {
          "indexed": false,
          "internalType": "address",
          "name": "deletingAdmin",
          "type": "address"
        }
      ],
      "name": "FogDeviceAllMappingDeleted",
      "type": "event"
    },
    {
      "anonymous": false,
      "inputs": [
        {
          "indexed": false,
          "internalType": "address",
          "name": "fog",
          "type": "address"
        },
        {
          "indexed": false,
          "internalType": "address",
          "name": "device",
          "type": "address"
        },
        {
          "indexed": false,
          "internalType": "address",
          "name": "addingAdmin",
          "type": "address"
        }
      ],
      "name": "FogDeviceMappingAdded",
      "type": "event"
    },
    {
      "anonymous": false,
      "inputs": [
        {
          "indexed": false,
          "internalType": "address",
          "name": "user",
          "type": "address"
        }
      ],
      "name": "NotAuthenticated",
      "type": "event"
    },
    {
      "anonymous": false,
      "inputs": [
        {
          "indexed": false,
          "internalType": "bytes32",
          "name": "uid",
          "type": "bytes32"
        },
        {
          "indexed": false,
          "internalType": "address",
          "name": "user",
          "type": "address"
        },
        {
          "indexed": false,
          "internalType": "address",
          "name": "device",
          "type": "address"
        },
        {
          "indexed": false,
          "internalType": "address",
          "name": "fog",
          "type": "address"
        }
      ],
      "name": "TokenCreated",
      "type": "event"
    },
    {
      "anonymous": false,
      "inputs": [
        {
          "indexed": false,
          "internalType": "address",
          "name": "user",
          "type": "address"
        },
        {
          "indexed": false,
          "internalType": "address",
          "name": "deletingAdmin",
          "type": "address"
        }
      ],
      "name": "UserDeviceAllMappingDeleted",
      "type": "event"
    },
    {
      "anonymous": false,
      "inputs": [
        {
          "indexed": false,
          "internalType": "address",
          "name": "user",
          "type": "address"
        },
        {
          "indexed": false,
          "internalType": "address",
          "name": "device",
          "type": "address"
        },
        {
          "indexed": false,
          "internalType": "address",
          "name": "addingAdmin",
          "type": "address"
        },
        {
          "indexed": false,
          "internalType": "address",
          "name": "fog",
          "type": "address"
        }
      ],
      "name": "UserDeviceMappingAdded",
      "type": "event"
    },
    {
      "inputs": [
        {
          "internalType": "uint256",
          "name": "",
          "type": "uint256"
        }
      ],
      "name": "Tokens",
      "outputs": [
        {
          "internalType": "bytes32",
          "name": "UID",
          "type": "bytes32"
        },
        {
          "internalType": "address",
          "name": "user",
          "type": "address"
        },
        {
          "internalType": "address",
          "name": "dev",
          "type": "address"
        },
        {
          "internalType": "address",
          "name": "fog",
          "type": "address"
        }
      ],
      "stateMutability": "view",
      "type": "function",
      "constant": true
    },
    {
      "inputs": [
        {
          "internalType": "address",
          "name": "",
          "type": "address"
        },
        {
          "internalType": "uint256",
          "name": "",
          "type": "uint256"
        }
      ],
      "name": "fog_devices",
      "outputs": [
        {
          "internalType": "address",
          "name": "",
          "type": "address"
        }
      ],
      "stateMutability": "view",
      "type": "function",
      "constant": true
    },
    {
      "inputs": [
        {
          "internalType": "address",
          "name": "",
          "type": "address"
        },
        {
          "internalType": "uint256",
          "name": "",
          "type": "uint256"
        }
      ],
      "name": "users_devices",
      "outputs": [
        {
          "internalType": "address",
          "name": "dev",
          "type": "address"
        },
        {
          "internalType": "address",
          "name": "fog",
          "type": "address"
        }
      ],
      "stateMutability": "view",
      "type": "function",
      "constant": true
    },
    {
      "inputs": [
        {
          "internalType": "address",
          "name": "newAdmin",
          "type": "address"
        }
      ],
      "name": "addAdmin",
      "outputs": [],
      "stateMutability": "nonpayable",
      "type": "function"
    },
    {
      "inputs": [
        {
          "internalType": "address",
          "name": "user",
          "type": "address"
        },
        {
          "internalType": "address",
          "name": "device",
          "type": "address"
        },
        {
          "internalType": "address",
          "name": "fog",
          "type": "address"
        }
      ],
      "name": "addUserDeviceMapping",
      "outputs": [],
      "stateMutability": "nonpayable",
      "type": "function"
    },
    {
      "inputs": [
        {
          "internalType": "address",
          "name": "fog",
          "type": "address"
        },
        {
          "internalType": "address",
          "name": "device",
          "type": "address"
        }
      ],
      "name": "addDeviceFogMapping",
      "outputs": [],
      "stateMutability": "nonpayable",
      "type": "function"
    },
    {
      "inputs": [
        {
          "internalType": "address",
          "name": "admin",
          "type": "address"
        }
      ],
      "name": "delAdmin",
      "outputs": [],
      "stateMutability": "nonpayable",
      "type": "function"
    },
    {
      "inputs": [
        {
          "internalType": "address",
          "name": "user",
          "type": "address"
        }
      ],
      "name": "delUser",
      "outputs": [],
      "stateMutability": "nonpayable",
      "type": "function"
    },
    {
      "inputs": [
        {
          "internalType": "address",
          "name": "fog",
          "type": "address"
        }
      ],
      "name": "delDev",
      "outputs": [],
      "stateMutability": "nonpayable",
      "type": "function"
    },
    {
      "inputs": [
        {
          "internalType": "address",
          "name": "device",
          "type": "address"
        },
        {
          "internalType": "address",
          "name": "fog",
          "type": "address"
        }
      ],
      "name": "requestAuthentication",
      "outputs": [],
      "stateMutability": "nonpayable",
      "type": "function"
    }
  ],
  "bytecode": "0x60806040526000805534801561001457600080fd5b506001339080600181540180825580915050600190039060005260206000200160009091909190916101000a81548173ffffffffffffffffffffffffffffffffffffffff021916908373ffffffffffffffffffffffffffffffffffffffff16021790555061198d806100876000396000f3fe608060405234801561001057600080fd5b506004361061009e5760003560e01c8063953c813311610066578063953c813314610158578063adcc52e51461018b578063cde29bde146101a7578063eb9006fb146101c3578063f849f379146101df5761009e565b80633192c6c9146100a357806359f066fb146100d457806362d91855146100f0578063704802751461010c5780637b618e5b14610128575b600080fd5b6100bd60048036038101906100b8919061162c565b6101fb565b6040516100cb929190611746565b60405180910390f35b6100ee60048036038101906100e99190611578565b61027c565b005b61010a60048036038101906101059190611578565b6103d4565b005b61012660048036038101906101219190611578565b610618565b005b610142600480360381019061013d919061162c565b610788565b60405161014f919061172b565b60405180910390f35b610172600480360381019061016d9190611668565b6107d6565b60405161018294939291906117eb565b60405180910390f35b6101a560048036038101906101a091906115a1565b610876565b005b6101c160048036038101906101bc91906115a1565b610a26565b005b6101dd60048036038101906101d891906115dd565b610f5b565b005b6101f960048036038101906101f49190611578565b61132f565b005b6003602052816000526040600020818154811061021757600080fd5b9060005260206000209060020201600091509150508060000160009054906101000a900473ffffffffffffffffffffffffffffffffffffffff16908060010160009054906101000a900473ffffffffffffffffffffffffffffffffffffffff16905082565b6000805b60018054905081101561034157600181815481106102c7577f4e487b7100000000000000000000000000000000000000000000000000000000600052603260045260246000fd5b9060005260206000200160009054906101000a900473ffffffffffffffffffffffffffffffffffffffff1673ffffffffffffffffffffffffffffffffffffffff163373ffffffffffffffffffffffffffffffffffffffff16141561032e5760019150610341565b808061033990611876565b915050610280565b508061034c57600080fd5b600460008373ffffffffffffffffffffffffffffffffffffffff1673ffffffffffffffffffffffffffffffffffffffff16815260200190815260200160002060006103979190611487565b7fffba2f5560c54f3e17c0ea6219ffc960702e123fd40f1cc9bf230d08ec57491782336040516103c8929190611746565b60405180910390a15050565b6000805b600180549050811015610499576001818154811061041f577f4e487b7100000000000000000000000000000000000000000000000000000000600052603260045260246000fd5b9060005260206000200160009054906101000a900473ffffffffffffffffffffffffffffffffffffffff1673ffffffffffffffffffffffffffffffffffffffff163373ffffffffffffffffffffffffffffffffffffffff1614156104865760019150610499565b808061049190611876565b9150506103d8565b50806104a457600080fd5b600260018054905010156104b757600080fd5b60005b600180549050811015610613578273ffffffffffffffffffffffffffffffffffffffff1660018281548110610518577f4e487b7100000000000000000000000000000000000000000000000000000000600052603260045260246000fd5b9060005260206000200160009054906101000a900473ffffffffffffffffffffffffffffffffffffffff1673ffffffffffffffffffffffffffffffffffffffff1614156106005760018181548110610599577f4e487b7100000000000000000000000000000000000000000000000000000000600052603260045260246000fd5b9060005260206000200160006101000a81549073ffffffffffffffffffffffffffffffffffffffff02191690557f6ac01b7aa18a8f6fd542477b7bbab44275bf3d95edf08e9404bb423ef2356da183336040516105f7929190611746565b60405180910390a15b808061060b90611876565b9150506104ba565b505050565b6000805b6001805490508110156106dd5760018181548110610663577f4e487b7100000000000000000000000000000000000000000000000000000000600052603260045260246000fd5b9060005260206000200160009054906101000a900473ffffffffffffffffffffffffffffffffffffffff1673ffffffffffffffffffffffffffffffffffffffff163373ffffffffffffffffffffffffffffffffffffffff1614156106ca57600191506106dd565b80806106d590611876565b91505061061c565b50806106e857600080fd5b6001829080600181540180825580915050600190039060005260206000200160009091909190916101000a81548173ffffffffffffffffffffffffffffffffffffffff021916908373ffffffffffffffffffffffffffffffffffffffff1602179055507fbf3f493c772c8c283fd124432c2d0f539ab343faa04258fe88e52912d36b102b823360405161077c929190611746565b60405180910390a15050565b600460205281600052604060002081815481106107a457600080fd5b906000526020600020016000915091509054906101000a900473ffffffffffffffffffffffffffffffffffffffff1681565b600281815481106107e657600080fd5b90600052602060002090600402016000915090508060000154908060010160009054906101000a900473ffffffffffffffffffffffffffffffffffffffff16908060020160009054906101000a900473ffffffffffffffffffffffffffffffffffffffff16908060030160009054906101000a900473ffffffffffffffffffffffffffffffffffffffff16905084565b6000805b60018054905081101561093b57600181815481106108c1577f4e487b7100000000000000000000000000000000000000000000000000000000600052603260045260246000fd5b9060005260206000200160009054906101000a900473ffffffffffffffffffffffffffffffffffffffff1673ffffffffffffffffffffffffffffffffffffffff163373ffffffffffffffffffffffffffffffffffffffff161415610928576001915061093b565b808061093390611876565b91505061087a565b508061094657600080fd5b600460008473ffffffffffffffffffffffffffffffffffffffff1673ffffffffffffffffffffffffffffffffffffffff168152602001908152602001600020829080600181540180825580915050600190039060005260206000200160009091909190916101000a81548173ffffffffffffffffffffffffffffffffffffffff021916908373ffffffffffffffffffffffffffffffffffffffff1602179055507f2051d1698438e909aa08ac2773e9a4b87c1c24ae064793b714e81e6189698948838333604051610a199392919061176f565b60405180910390a1505050565b6000805b600460008473ffffffffffffffffffffffffffffffffffffffff1673ffffffffffffffffffffffffffffffffffffffff16815260200190815260200160002080549050811015610b65578373ffffffffffffffffffffffffffffffffffffffff16600460008573ffffffffffffffffffffffffffffffffffffffff1673ffffffffffffffffffffffffffffffffffffffff1681526020019081526020016000208281548110610b02577f4e487b7100000000000000000000000000000000000000000000000000000000600052603260045260246000fd5b9060005260206000200160009054906101000a900473ffffffffffffffffffffffffffffffffffffffff1673ffffffffffffffffffffffffffffffffffffffff161415610b525760019150610b65565b8080610b5d90611876565b915050610a2a565b5080610bab577f688a3922fdb7052949427bceb2103ae038ecb93352d1d39cab3dde2251218455838333604051610b9e9392919061176f565b60405180910390a1610f56565b6000805b600360003373ffffffffffffffffffffffffffffffffffffffff1673ffffffffffffffffffffffffffffffffffffffff16815260200190815260200160002080549050811015610cf1578473ffffffffffffffffffffffffffffffffffffffff16600360003373ffffffffffffffffffffffffffffffffffffffff1673ffffffffffffffffffffffffffffffffffffffff1681526020019081526020016000208281548110610c87577f4e487b7100000000000000000000000000000000000000000000000000000000600052603260045260246000fd5b906000526020600020906002020160000160009054906101000a900473ffffffffffffffffffffffffffffffffffffffff1673ffffffffffffffffffffffffffffffffffffffff161415610cde5760019150610cf1565b8080610ce990611876565b915050610baf565b508015610f16577fbbf285ab57a06f66efef76aacce8608661908779f200e8087ac79f32c1750421338585604051610d2b9392919061176f565b60405180910390a1600084843342604051602001610d4c94939291906116dd565b604051602081830303815290604052805190602001209050600260405180608001604052808381526020013373ffffffffffffffffffffffffffffffffffffffff1681526020018773ffffffffffffffffffffffffffffffffffffffff1681526020018673ffffffffffffffffffffffffffffffffffffffff1681525090806001815401808255809150506001900390600052602060002090600402016000909190919091506000820151816000015560208201518160010160006101000a81548173ffffffffffffffffffffffffffffffffffffffff021916908373ffffffffffffffffffffffffffffffffffffffff16021790555060408201518160020160006101000a81548173ffffffffffffffffffffffffffffffffffffffff021916908373ffffffffffffffffffffffffffffffffffffffff16021790555060608201518160030160006101000a81548173ffffffffffffffffffffffffffffffffffffffff021916908373ffffffffffffffffffffffffffffffffffffffff16021790555050507f066cde511de645a3d03ed04069128a6c16fc5bf2d076a748a2acd1e205d3390f81338787604051610f0894939291906117eb565b60405180910390a150610f54565b80610f53577fedc2b9184e4f83d4cc9079ff886f15cd4ebc064df34bb7414aa697c2d5812a5733604051610f4a919061172b565b60405180910390a15b5b505b505050565b6000805b6001805490508110156110205760018181548110610fa6577f4e487b7100000000000000000000000000000000000000000000000000000000600052603260045260246000fd5b9060005260206000200160009054906101000a900473ffffffffffffffffffffffffffffffffffffffff1673ffffffffffffffffffffffffffffffffffffffff163373ffffffffffffffffffffffffffffffffffffffff16141561100d5760019150611020565b808061101890611876565b915050610f5f565b508061102b57600080fd5b6000805b600460008573ffffffffffffffffffffffffffffffffffffffff1673ffffffffffffffffffffffffffffffffffffffff1681526020019081526020016000208054905081101561116a578473ffffffffffffffffffffffffffffffffffffffff16600460008673ffffffffffffffffffffffffffffffffffffffff1673ffffffffffffffffffffffffffffffffffffffff1681526020019081526020016000208281548110611107577f4e487b7100000000000000000000000000000000000000000000000000000000600052603260045260246000fd5b9060005260206000200160009054906101000a900473ffffffffffffffffffffffffffffffffffffffff1673ffffffffffffffffffffffffffffffffffffffff161415611157576001915061116a565b808061116290611876565b91505061102f565b5080156112ec57600360008673ffffffffffffffffffffffffffffffffffffffff1673ffffffffffffffffffffffffffffffffffffffff16815260200190815260200160002060405180604001604052808673ffffffffffffffffffffffffffffffffffffffff1681526020018573ffffffffffffffffffffffffffffffffffffffff16815250908060018154018082558091505060019003906000526020600020906002020160009091909190915060008201518160000160006101000a81548173ffffffffffffffffffffffffffffffffffffffff021916908373ffffffffffffffffffffffffffffffffffffffff16021790555060208201518160010160006101000a81548173ffffffffffffffffffffffffffffffffffffffff021916908373ffffffffffffffffffffffffffffffffffffffff16021790555050507fbe625affc65a6f3a8c8e7603b6880d4c2cfb4fbee3c53135cdb094d2c7afb815858533866040516112df94939291906117a6565b60405180910390a1611328565b7f688a3922fdb7052949427bceb2103ae038ecb93352d1d39cab3dde225121845584843360405161131f9392919061176f565b60405180910390a15b5050505050565b6000805b6001805490508110156113f4576001818154811061137a577f4e487b7100000000000000000000000000000000000000000000000000000000600052603260045260246000fd5b9060005260206000200160009054906101000a900473ffffffffffffffffffffffffffffffffffffffff1673ffffffffffffffffffffffffffffffffffffffff163373ffffffffffffffffffffffffffffffffffffffff1614156113e157600191506113f4565b80806113ec90611876565b915050611333565b50806113ff57600080fd5b600360008373ffffffffffffffffffffffffffffffffffffffff1673ffffffffffffffffffffffffffffffffffffffff168152602001908152602001600020600061144a91906114a8565b7fd583bac0996795f46c61a719ca6954d32d592a449d37914310382ab0d2f64556823360405161147b929190611746565b60405180910390a15050565b50805460008255906000526020600020908101906114a591906114cc565b50565b50805460008255600202906000526020600020908101906114c991906114e9565b50565b5b808211156114e55760008160009055506001016114cd565b5090565b5b8082111561154a57600080820160006101000a81549073ffffffffffffffffffffffffffffffffffffffff02191690556001820160006101000a81549073ffffffffffffffffffffffffffffffffffffffff0219169055506002016114ea565b5090565b60008135905061155d81611929565b92915050565b60008135905061157281611940565b92915050565b60006020828403121561158a57600080fd5b60006115988482850161154e565b91505092915050565b600080604083850312156115b457600080fd5b60006115c28582860161154e565b92505060206115d38582860161154e565b9150509250929050565b6000806000606084860312156115f257600080fd5b60006116008682870161154e565b93505060206116118682870161154e565b92505060406116228682870161154e565b9150509250925092565b6000806040838503121561163f57600080fd5b600061164d8582860161154e565b925050602061165e85828601611563565b9150509250929050565b60006020828403121561167a57600080fd5b600061168884828501611563565b91505092915050565b61169a81611830565b82525050565b6116b16116ac82611830565b6118bf565b82525050565b6116c081611842565b82525050565b6116d76116d28261186c565b6118e3565b82525050565b60006116e982876116a0565b6014820191506116f982866116a0565b60148201915061170982856116a0565b60148201915061171982846116c6565b60208201915081905095945050505050565b60006020820190506117406000830184611691565b92915050565b600060408201905061175b6000830185611691565b6117686020830184611691565b9392505050565b60006060820190506117846000830186611691565b6117916020830185611691565b61179e6040830184611691565b949350505050565b60006080820190506117bb6000830187611691565b6117c86020830186611691565b6117d56040830185611691565b6117e26060830184611691565b95945050505050565b600060808201905061180060008301876116b7565b61180d6020830186611691565b61181a6040830185611691565b6118276060830184611691565b95945050505050565b600061183b8261184c565b9050919050565b6000819050919050565b600073ffffffffffffffffffffffffffffffffffffffff82169050919050565b6000819050919050565b60006118818261186c565b91507fffffffffffffffffffffffffffffffffffffffffffffffffffffffffffffffff8214156118b4576118b36118ed565b5b600182019050919050565b60006118ca826118d1565b9050919050565b60006118dc8261191c565b9050919050565b6000819050919050565b7f4e487b7100000000000000000000000000000000000000000000000000000000600052601160045260246000fd5b60008160601b9050919050565b61193281611830565b811461193d57600080fd5b50565b6119498161186c565b811461195457600080fd5b5056fea2646970667358221220d3d963a6e641b63545b2b3c87a15d12f9e187064458518b27c36244aea4af21e64736f6c63430008040033",
  "immutableReferences": {},
  "source": "// SPDX-License-Identifier: GPL-3.0-or-later\r\npragma solidity ^0.8.0;\r\n//pragma experimental ABIEncoderV2;\r\ncontract AuthenticationContract{\r\n    uint256 count=0; //count for all the tokens\r\n\r\n    address [] admins; // admins of the system\r\n    struct Token{ // struct for the information of a given token\r\n        bytes32 UID;\r\n        address user;\r\n        address dev;\r\n        address fog;\r\n    }\r\n    struct Devices{ // struct for the addresses of devices\r\n        address dev;\r\n        address fog;\r\n    }\r\n    Token [] public Tokens ;  // array of all tokens issued\r\n    // mapping for users and their accessable devices\r\n    mapping (address => Devices[]) public users_devices;\r\n    // mapping for devices at a fog node\r\n    mapping (address => address[]) public fog_devices; \r\n\r\n    modifier onlyAdmin{ // for user check at modifications\r\n        bool admin=false;\r\n        for(uint256 i = 0; i < admins.length;i++){\r\n            if(msg.sender==admins[i]){\r\n                admin=true;\r\n                break;\r\n            }\r\n        }\r\n        if(!admin)\r\n            revert();\r\n        else\r\n        _;\r\n    }\r\n\r\n    constructor() {\r\n        admins.push(msg.sender); //creator of contract is the first admin\r\n    }\r\n    // adding admin by other admins\r\n    function addAdmin(address newAdmin) public onlyAdmin{ \r\n        admins.push(newAdmin);\r\n        emit AdminAdded(newAdmin,msg.sender);\r\n    }\r\n    // adds a device to a given user by admin\r\n    function addUserDeviceMapping(address user, address device,address fog) \r\n                                                             public onlyAdmin{ \r\n        //only admin can add users and devices\r\n        bool deviceExists=false;\r\n        for(uint256 i = 0; i<fog_devices[fog].length; i++){\r\n        // Check if device is added to a fog already otherwise it doesn't exist\r\n        if(fog_devices[fog][i]==device){ // check the devices of a user\r\n            // device is mapped to a fog\r\n               // fog=users_devices[msg.sender][i].fog;\r\n                deviceExists=true;\r\n                break;\r\n            }\r\n        }\r\n        if(deviceExists){\r\n            users_devices[user].push(Devices(device,fog));\r\n            emit UserDeviceMappingAdded(user,device,msg.sender,fog);\r\n        }\r\n        else\r\n          emit DeviceDoesnotExist(device,fog,msg.sender);\r\n    }\r\n    // adds a device to a given fog node\r\n    function addDeviceFogMapping(address fog, address device) public onlyAdmin{ \r\n        //only admin can add users and devices\r\n        fog_devices[fog].push(device);\r\n      emit FogDeviceMappingAdded(fog,device,msg.sender);\r\n    }   \r\n    \r\n    // to share the addition of new admin by who \r\n    event AdminAdded(address newAdmin, address addingAdmin); \r\n    // to share new mapping for user-device mapping added by who \r\n    event UserDeviceMappingAdded(address user, address device, address addingAdmin, address fog);\r\n    // to share new fog-device mapping added by who\r\n    event FogDeviceMappingAdded(address fog, address device, address addingAdmin);\r\n    // to share the requested device doesn't exist on the system\r\n    event DeviceDoesnotExist(address device, address fog, address sender);\r\n    \r\n    // delete a given admin\r\n    function delAdmin (address admin) public onlyAdmin{ \r\n        if(admins.length<2)\r\n            revert();\r\n        else {\r\n            uint256 i = 0;\r\n            while(i < admins.length){\r\n                if(admins[i]== admin){\r\n                    delete admins[i];\r\n                 emit AdminDeleted(admin,msg.sender);\r\n                }\r\n                i++;\r\n            }\r\n        }\r\n    }\r\n    // delete user access to all devices\r\n    function delUser(address user) public onlyAdmin{ \r\n        delete users_devices[user];\r\n      emit UserDeviceAllMappingDeleted(user,msg.sender);\r\n    }\r\n    // delete devices at a fog node \r\n    function delDev(address fog) public onlyAdmin{ \r\n        delete fog_devices[fog];\r\n       emit FogDeviceAllMappingDeleted(fog,msg.sender);\r\n\r\n    }\r\n    \r\n    // to share the deletion of an new admin by who \r\n    event AdminDeleted(address newAdmin, address deletingAdmin); \r\n    // to share the deletion of all user-device mapping of a user added by who \r\n    event UserDeviceAllMappingDeleted(address user,  address deletingAdmin);\r\n     // to share the deletion all fog-device mapping of a fog  by who\r\n    event FogDeviceAllMappingDeleted(address fog, address deletingAdmin);\r\n\r\n    // authentication request\r\n    function requestAuthentication(address device,address fog) public { \r\n        // Check if device exists in fog-device mapping\r\n        bool deviceExists=false;\r\n        for(uint256 i = 0; i<fog_devices[fog].length; i++){\r\n            if(fog_devices[fog][i]==device){ // check the devices of a user\r\n                // device is mapped to a fog\r\n             //   fog=users_devices[msg.sender][i].fog;\r\n                deviceExists=true;\r\n                break;\r\n            }\r\n        }\r\n        if(!deviceExists){\r\n            //trigger DeviceDoesnotExist event\r\n          emit DeviceDoesnotExist(device,fog,msg.sender);\r\n        }\r\n        else{\r\n            bool auth=false;\r\n            for(uint256 m = 0; m<users_devices[msg.sender].length; m++){\r\n                if(users_devices[msg.sender][m].dev==device){ \r\n                // if we find device we need to find the fog it belongs to\r\n                    auth=true;\r\n                    break;\r\n                }\r\n            }\r\n            if(auth){ // shares successful authentication event\r\n              emit Authenticated(msg.sender,device,fog);\r\n                bytes32 UID= keccak256(abi.encodePacked(device,fog,msg.sender,block.timestamp));\r\n                Tokens.push(Token(UID,msg.sender,device,fog));\r\n               emit TokenCreated(UID,msg.sender,device,fog);\r\n            }\r\n            else if(!auth){\r\n                // trigger failed authentication event\r\n              emit NotAuthenticated(msg.sender);\r\n            }\r\n        }\r\n    }\r\n     // authentication events\r\n    event Authenticated(address user, address device, address fog); \r\n    event NotAuthenticated(address user);\r\n    event TokenCreated(bytes32 uid, address user, address device, address fog);\r\n}",
  "sourcePath": "C:/Users/arantes/smartHealthGanache/contracts/AuthenticationContract.sol",
  "compiler": {
    "name": "solc",
    "version": "0.8.4+commit.c7e474f2.Emscripten.clang"
  },
  "schemaVersion": "3.4.1",
  "updatedAt": "2021-07-26T06:40:28.755Z",
  "networkType": "ethereum",
  "devdoc": {
    "kind": "dev",
    "methods": {},
    "version": 1
  },
  "userdoc": {
    "kind": "user",
    "methods": {},
    "version": 1
  }
}